:10000000750800750900750A0C750B14750C0475DC
:100010000D15C2A4D2A0D2A1D2A2D2A3D2A5D2A69B
:10002000D2A730A41530A01B30A12130A22730A3C5
:100030002D30A53330A63930A73FD2A4851280C217
:10004000A0803FD2A0851380C2A18036D2A18514A2
:1000500080C2A2802DD2A2851580C2A38024D2A303
:10006000851680C2A5801BD2A5851780C2A68012E6
:10007000D2A6851880C2A78009D2A7851180C2A404
:100080008000758900758CBFD28C308DFDC28D7556
:100090008CBFE50D75F00484F8E50D75F00784E874
:1000A00025F075F007B40705751006801240098425
:1000B000E5F09401F5108007C39401F5108000E588
:1000C0000CB40105750F018055B40205750F04804D
:1000D0004DB40305750F048045B40405750F008009
:1000E0003DB40505750F028035B40605750F058012
:1000F0002DB40705750F008025B40805750F038022
:100100001DB40905750F068015B40A05750F018029
:100110000DB40B05750F048005750F068000E50B07
:10012000850FF025F08510F025F075F00784E5F0D7
:1001300085F00E30B10730B002807221E27511FFF8
:100140007512FF7513FF7514FF7515FFE50EB400EA
:100150000B7518927517887516834117B4010B75C6
:0D01600018A17517C07516C84117B4020B21
:10016D007518927517867516C24117B4030B75185D
:10017D00877517867516CC4117B4040B75189875CD
:10018D0017C17516884117B4050B7518987517C1E9
:10019D007516CF8075751892751786751689806AD4
:1001AD00E50875F00A8490036393F512E5F093F575
:1001BD0011E50975F00A8493F515E5F093F514E54D
:1001CD000A75F00A8493F518E5F093F5177513FF8A
:1001DD007516FF8035E50D75F00A8490036393F570
:1001ED0012E5F093F511E50C75F00A8493F515E51C
:1001FD00F093F514E50B75F00A8493F518E5F0937B
:10020D00F5177513BF7516BF80000519E519700236
:10021D00051AE51AB40107E519B4E0028002400899
:10022D00751900751A00800201220508E508B43C15
:10023D00028002401A7508000509E509B43C0280E8
:10024D0002400C750900050AE50AB4180480046122
:10025D000A40FC750A00050BE50CB401028064B47C
:10026D000202806FB40302805AB404028045B405C3
:10027D00028050B40602803BB407028046B40802E7
:10028D008041B40902802CB40A028037B40B02807D
:10029D0022B40C69E50BB41F0280624060750B013E
:1002AD00750C01050DE50DB463028051404F750DC0
:0302BD0000804A74
:1002C000E50BB41E0280434041750B01050C803ADA
:1002D000E50BB41F0280334031750B01050C802AF9
:1002E000E50D75F00484E5F06010E50BB41C0280A8
:1002F000194017750B01050C8010E50BB41D028029
:10030000094007750B01050C8000800030B21130E8
:10031000B31330B41C30B52530B62E30B73780411A
:1003200075080080EA0509E509B43CE67509008016
:10033000E1050AE50AB418DD750A0080D8050BE569
:100340000BB420D4750B0180CF050CE50CB40DCB9C
:10035000750C0180C6050DE50DB46305750D0080B3
:0D036000000122C0F9A4B0999282F88090AB
:00000001FF
